{
  "contractName": "Inbox",
  "abi": [
    {
      "constant": false,
      "inputs": [
        {
          "name": "hash1",
          "type": "string"
        },
        {
          "name": "hash2",
          "type": "string"
        },
        {
          "name": "hash3",
          "type": "string"
        },
        {
          "name": "hash4",
          "type": "string"
        }
      ],
      "name": "storeHash",
      "outputs": [],
      "payable": false,
      "stateMutability": "nonpayable",
      "type": "function",
      "signature": "0x86649796"
    },
    {
      "constant": true,
      "inputs": [],
      "name": "getMessage",
      "outputs": [
        {
          "name": "_publisher",
          "type": "address"
        },
        {
          "name": "hash_do_PDF",
          "type": "string"
        },
        {
          "name": "hash_do_RDF",
          "type": "string"
        },
        {
          "name": "PDF_no_IPFS",
          "type": "string"
        },
        {
          "name": "RDF_no_IPFS",
          "type": "string"
        }
      ],
      "payable": false,
      "stateMutability": "view",
      "type": "function",
      "signature": "0xce6d41de"
    }
  ],
  "bytecode": "0x608060405234801561001057600080fd5b5061090b806100206000396000f3fe60806040526004361061004c576000357c0100000000000000000000000000000000000000000000000000000000900463ffffffff1680638664979614610051578063ce6d41de146102de575b600080fd5b34801561005d57600080fd5b506102dc6004803603608081101561007457600080fd5b810190808035906020019064010000000081111561009157600080fd5b8201836020820111156100a357600080fd5b803590602001918460018302840111640100000000831117156100c557600080fd5b91908080601f016020809104026020016040519081016040528093929190818152602001838380828437600081840152601f19601f8201169050808301925050505050505091929192908035906020019064010000000081111561012857600080fd5b82018360208201111561013a57600080fd5b8035906020019184600183028401116401000000008311171561015c57600080fd5b91908080601f016020809104026020016040519081016040528093929190818152602001838380828437600081840152601f19601f820116905080830192505050505050509192919290803590602001906401000000008111156101bf57600080fd5b8201836020820111156101d157600080fd5b803590602001918460018302840111640100000000831117156101f357600080fd5b91908080601f016020809104026020016040519081016040528093929190818152602001838380828437600081840152601f19601f8201169050808301925050505050505091929192908035906020019064010000000081111561025657600080fd5b82018360208201111561026857600080fd5b8035906020019184600183028401116401000000008311171561028a57600080fd5b91908080601f016020809104026020016040519081016040528093929190818152602001838380828437600081840152601f19601f8201169050808301925050505050505091929192905050506104e5565b005b3480156102ea57600080fd5b506102f3610587565b604051808673ffffffffffffffffffffffffffffffffffffffff1673ffffffffffffffffffffffffffffffffffffffff16815260200180602001806020018060200180602001858103855289818151815260200191508051906020019080838360005b83811015610371578082015181840152602081019050610356565b50505050905090810190601f16801561039e5780820380516001836020036101000a031916815260200191505b50858103845288818151815260200191508051906020019080838360005b838110156103d75780820151818401526020810190506103bc565b50505050905090810190601f1680156104045780820380516001836020036101000a031916815260200191505b50858103835287818151815260200191508051906020019080838360005b8381101561043d578082015181840152602081019050610422565b50505050905090810190601f16801561046a5780820380516001836020036101000a031916815260200191505b50858103825286818151815260200191508051906020019080838360005b838110156104a3578082015181840152602081019050610488565b50505050905090810190601f1680156104d05780820380516001836020036101000a031916815260200191505b50995050505050505050505060405180910390f35b336000806101000a81548173ffffffffffffffffffffffffffffffffffffffff021916908373ffffffffffffffffffffffffffffffffffffffff160217905550836001908051906020019061053b92919061083a565b50826002908051906020019061055292919061083a565b50816003908051906020019061056992919061083a565b50806004908051906020019061058092919061083a565b5050505050565b60006060806060806000809054906101000a900473ffffffffffffffffffffffffffffffffffffffff166001600260036004838054600181600116156101000203166002900480601f01602080910402602001604051908101604052809291908181526020018280546001816001161561010002031660029004801561064e5780601f106106235761010080835404028352916020019161064e565b820191906000526020600020905b81548152906001019060200180831161063157829003601f168201915b50505050509350828054600181600116156101000203166002900480601f0160208091040260200160405190810160405280929190818152602001828054600181600116156101000203166002900480156106ea5780601f106106bf576101008083540402835291602001916106ea565b820191906000526020600020905b8154815290600101906020018083116106cd57829003601f168201915b50505050509250818054600181600116156101000203166002900480601f0160208091040260200160405190810160405280929190818152602001828054600181600116156101000203166002900480156107865780601f1061075b57610100808354040283529160200191610786565b820191906000526020600020905b81548152906001019060200180831161076957829003601f168201915b50505050509150808054600181600116156101000203166002900480601f0160208091040260200160405190810160405280929190818152602001828054600181600116156101000203166002900480156108225780601f106107f757610100808354040283529160200191610822565b820191906000526020600020905b81548152906001019060200180831161080557829003601f168201915b50505050509050945094509450945094509091929394565b828054600181600116156101000203166002900490600052602060002090601f016020900481019282601f1061087b57805160ff19168380011785556108a9565b828001600101855582156108a9579182015b828111156108a857825182559160200191906001019061088d565b5b5090506108b691906108ba565b5090565b6108dc91905b808211156108d85760008160009055506001016108c0565b5090565b9056fea165627a7a723058201747917fa966ab57b69932c60bf23baeb804281c14568f301327078f7a9f5aef0029",
  "source": "pragma solidity >=0.4.16 <0.6.0;\r\n\r\ncontract Inbox {\r\n\r\n    address publisher;\r\n    string PDF1;\r\n    string RDF1;\r\n    string PDF2;\r\n    string RDF2;\r\n\r\n    function storeHash\r\n    (string memory hash1,\r\n     string memory hash2,\r\n     string memory hash3,\r\n     string memory hash4)\r\n     public {\r\n        publisher = msg.sender;\r\n        PDF1 = hash1;\r\n        RDF1 = hash2;\r\n        PDF2 = hash3;\r\n        RDF2 = hash4;\r\n    }\r\n\r\n    function getMessage() public view returns\r\n    (address _publisher,\r\n     string memory hash_do_PDF,\r\n     string memory hash_do_RDF,\r\n     string memory PDF_no_IPFS,\r\n     string memory RDF_no_IPFS)\r\n     {\r\n        return (publisher, PDF1, RDF1, PDF2, RDF2);\r\n    }\r\n\r\n}\r\n",
  "sourcePath": "C:/Users/GUILHERME/Mestrado2/Project/contracts/Inbox.sol",
  "compiler": {
    "name": "solc",
    "version": "0.5.0+commit.1d4f565a.Emscripten.clang"
  },
  "schemaVersion": "3.0.2",
  "updatedAt": "2019-03-27T23:05:36.637Z",
  "devdoc": {
    "methods": {}
  },
  "userdoc": {
    "methods": {}
  }
}