{
  "contractName": "Inbox",
  "abi": [
    {
      "anonymous": false,
      "inputs": [
        {
          "indexed": true,
          "name": "_publisher",
          "type": "address"
        },
        {
          "indexed": false,
          "name": "hash1",
          "type": "string"
        },
        {
          "indexed": false,
          "name": "hash2",
          "type": "string"
        },
        {
          "indexed": false,
          "name": "hash3",
          "type": "string"
        },
        {
          "indexed": false,
          "name": "hash4",
          "type": "string"
        }
      ],
      "name": "LogStoreHash",
      "type": "event",
      "signature": "0x30e9340ff572ec812f5facd04e13f37800f716ebc680d57f47b369c3c3b1d170"
    },
    {
      "constant": false,
      "inputs": [
        {
          "name": "hash1",
          "type": "string"
        },
        {
          "name": "hash2",
          "type": "string"
        },
        {
          "name": "hash3",
          "type": "string"
        },
        {
          "name": "hash4",
          "type": "string"
        }
      ],
      "name": "storeHash",
      "outputs": [],
      "payable": false,
      "stateMutability": "nonpayable",
      "type": "function",
      "signature": "0x86649796"
    },
    {
      "constant": true,
      "inputs": [],
      "name": "getMessage",
      "outputs": [
        {
          "name": "_publisher",
          "type": "address"
        },
        {
          "name": "hash_do_PDF",
          "type": "string"
        },
        {
          "name": "hash_do_RDF",
          "type": "string"
        },
        {
          "name": "PDF_no_IPFS",
          "type": "string"
        },
        {
          "name": "RDF_no_IPFS",
          "type": "string"
        }
      ],
      "payable": false,
      "stateMutability": "view",
      "type": "function",
      "signature": "0xce6d41de"
    }
  ],
  "bytecode": "0x608060405234801561001057600080fd5b50610b26806100206000396000f3fe60806040526004361061004c576000357c0100000000000000000000000000000000000000000000000000000000900463ffffffff1680638664979614610051578063ce6d41de146102de575b600080fd5b34801561005d57600080fd5b506102dc6004803603608081101561007457600080fd5b810190808035906020019064010000000081111561009157600080fd5b8201836020820111156100a357600080fd5b803590602001918460018302840111640100000000831117156100c557600080fd5b91908080601f016020809104026020016040519081016040528093929190818152602001838380828437600081840152601f19601f8201169050808301925050505050505091929192908035906020019064010000000081111561012857600080fd5b82018360208201111561013a57600080fd5b8035906020019184600183028401116401000000008311171561015c57600080fd5b91908080601f016020809104026020016040519081016040528093929190818152602001838380828437600081840152601f19601f820116905080830192505050505050509192919290803590602001906401000000008111156101bf57600080fd5b8201836020820111156101d157600080fd5b803590602001918460018302840111640100000000831117156101f357600080fd5b91908080601f016020809104026020016040519081016040528093929190818152602001838380828437600081840152601f19601f8201169050808301925050505050505091929192908035906020019064010000000081111561025657600080fd5b82018360208201111561026857600080fd5b8035906020019184600183028401116401000000008311171561028a57600080fd5b91908080601f016020809104026020016040519081016040528093929190818152602001838380828437600081840152601f19601f8201169050808301925050505050505091929192905050506104e5565b005b3480156102ea57600080fd5b506102f36107a2565b604051808673ffffffffffffffffffffffffffffffffffffffff1673ffffffffffffffffffffffffffffffffffffffff16815260200180602001806020018060200180602001858103855289818151815260200191508051906020019080838360005b83811015610371578082015181840152602081019050610356565b50505050905090810190601f16801561039e5780820380516001836020036101000a031916815260200191505b50858103845288818151815260200191508051906020019080838360005b838110156103d75780820151818401526020810190506103bc565b50505050905090810190601f1680156104045780820380516001836020036101000a031916815260200191505b50858103835287818151815260200191508051906020019080838360005b8381101561043d578082015181840152602081019050610422565b50505050905090810190601f16801561046a5780820380516001836020036101000a031916815260200191505b50858103825286818151815260200191508051906020019080838360005b838110156104a3578082015181840152602081019050610488565b50505050905090810190601f1680156104d05780820380516001836020036101000a031916815260200191505b50995050505050505050505060405180910390f35b336000806101000a81548173ffffffffffffffffffffffffffffffffffffffff021916908373ffffffffffffffffffffffffffffffffffffffff160217905550836001908051906020019061053b929190610a55565b508260029080519060200190610552929190610a55565b508160039080519060200190610569929190610a55565b508060049080519060200190610580929190610a55565b506000809054906101000a900473ffffffffffffffffffffffffffffffffffffffff1673ffffffffffffffffffffffffffffffffffffffff167f30e9340ff572ec812f5facd04e13f37800f716ebc680d57f47b369c3c3b1d170858585856040518080602001806020018060200180602001858103855289818151815260200191508051906020019080838360005b8381101561062a57808201518184015260208101905061060f565b50505050905090810190601f1680156106575780820380516001836020036101000a031916815260200191505b50858103845288818151815260200191508051906020019080838360005b83811015610690578082015181840152602081019050610675565b50505050905090810190601f1680156106bd5780820380516001836020036101000a031916815260200191505b50858103835287818151815260200191508051906020019080838360005b838110156106f65780820151818401526020810190506106db565b50505050905090810190601f1680156107235780820380516001836020036101000a031916815260200191505b50858103825286818151815260200191508051906020019080838360005b8381101561075c578082015181840152602081019050610741565b50505050905090810190601f1680156107895780820380516001836020036101000a031916815260200191505b509850505050505050505060405180910390a250505050565b60006060806060806000809054906101000a900473ffffffffffffffffffffffffffffffffffffffff166001600260036004838054600181600116156101000203166002900480601f0160208091040260200160405190810160405280929190818152602001828054600181600116156101000203166002900480156108695780601f1061083e57610100808354040283529160200191610869565b820191906000526020600020905b81548152906001019060200180831161084c57829003601f168201915b50505050509350828054600181600116156101000203166002900480601f0160208091040260200160405190810160405280929190818152602001828054600181600116156101000203166002900480156109055780601f106108da57610100808354040283529160200191610905565b820191906000526020600020905b8154815290600101906020018083116108e857829003601f168201915b50505050509250818054600181600116156101000203166002900480601f0160208091040260200160405190810160405280929190818152602001828054600181600116156101000203166002900480156109a15780601f10610976576101008083540402835291602001916109a1565b820191906000526020600020905b81548152906001019060200180831161098457829003601f168201915b50505050509150808054600181600116156101000203166002900480601f016020809104026020016040519081016040528092919081815260200182805460018160011615610100020316600290048015610a3d5780601f10610a1257610100808354040283529160200191610a3d565b820191906000526020600020905b815481529060010190602001808311610a2057829003601f168201915b50505050509050945094509450945094509091929394565b828054600181600116156101000203166002900490600052602060002090601f016020900481019282601f10610a9657805160ff1916838001178555610ac4565b82800160010185558215610ac4579182015b82811115610ac3578251825591602001919060010190610aa8565b5b509050610ad19190610ad5565b5090565b610af791905b80821115610af3576000816000905550600101610adb565b5090565b9056fea165627a7a7230582033a0e3e189fc0ebeda6ef634f21731eef8bb567d8dea162b5390a1b1ebe0e63e0029",
  "source": "pragma solidity >=0.4.16 <0.6.0;\r\n\r\ncontract Inbox {\r\n\r\n    address publisher;\r\n    string PDF1;\r\n    string RDF1;\r\n    string PDF2;\r\n    string RDF2;\r\n\r\n    //events\r\n    event LogStoreHash(\r\n      address indexed _publisher,\r\n      string hash1,\r\n      string hash2,\r\n      string hash3,\r\n      string hash4\r\n      );\r\n\r\n    function storeHash\r\n    (string memory hash1,\r\n     string memory hash2,\r\n     string memory hash3,\r\n     string memory hash4)\r\n     public {\r\n        publisher = msg.sender;\r\n        PDF1 = hash1;\r\n        RDF1 = hash2;\r\n        PDF2 = hash3;\r\n        RDF2 = hash4;\r\n\r\n        emit LogStoreHash(publisher, hash1, hash2, hash3, hash4);\r\n    }\r\n\r\n    function getMessage() public view returns\r\n    (address _publisher,\r\n     string memory hash_do_PDF,\r\n     string memory hash_do_RDF,\r\n     string memory PDF_no_IPFS,\r\n     string memory RDF_no_IPFS)\r\n     {\r\n        return (publisher, PDF1, RDF1, PDF2, RDF2);\r\n    }\r\n\r\n}\r\n",
  "sourcePath": "C:/Users/GUILHERME/MestradoRinkebyGithub1/Project/contracts/Inbox.sol",
  "compiler": {
    "name": "solc",
    "version": "0.5.0+commit.1d4f565a.Emscripten.clang"
  },
  "schemaVersion": "3.0.6",
  "updatedAt": "2019-06-21T20:06:41.405Z",
  "devdoc": {
    "methods": {}
  },
  "userdoc": {
    "methods": {}
  }
}